201501010010000100000000000000000966                8000000000027238530658GARCIA METALES NO FERROSO     000000000471900000000000000000000000000000000000000000000000000000000000000000000000000000000000000000000000000000000000PES00010000001A00000000008190000000000000000000000000000                              000000000000000
201501010010000100000000000000000967                8000000000027238530658GARCIA METALES NO FERROSO     000000000816750000000000000000000000000000000000000000000000000000000000000000000000000000000000000000000000000000000000PES00010000001A00000000014175000000000000000000000000000                              000000000000000
201501010010000300000000000000013869                8000000000030710795726COMPLEME SRL                  000000000140107000000000000000000000000000000000000000000000000000000000000000000000000000000000000000000000000000000000PES00010000001A00000000002431600000000000000000000000000                              000000000000000
201501020010000100000000000000000974                8000000000027238530658GARCIA METALES NO FERROSO     000000001187518000000000000000000000000000000000000000000000000000000000000000000000000000000000000000000000000000000000PES00010000001A00000000020609800000000000000000000000000                              000000000000000
201501020010000800000000000000042065                8000000000030685158341CHUBB ARGENTINA DE SEG.       000000000035310000000000000000000000000000000000000000000000000000000000000000000000000000000000000000000000000000000000PES00010000001A00000000000612800000000000000000000000000                              000000000000000
201501050010000100000000000000000242                8000000000020935900655MENSAJERIA DN                 000000000040535000000000000000000000000000000000000000000000000000000000000000000000000000000000000000000000000000000000PES00010000001A00000000000703500000000000000000000000000                              000000000000000
201501050010000100000000000000028659                8000000000030593015749ACCESORIOS ZALOZE SRL         000000000164210000000000000000000000000000000000000000000000000000000000000000000000000000000000000000000000000000000000PES00010000001A00000000002849900000000000000000000000000                              000000000000000
201501050010000200000000000000000175                8000000000030712030158LEONARDO ADROVER Y LUCAS      000000000145956000000000000000000000000000000000000000000000000000000000000000000000000000000000000000000000000000000000PES00010000001A00000000002533100000000000000000000000000                              000000000000000
201501050010000300000000000000011547                8000000000020164953360ELECTRO LUGANO                000000000036837000000000000000000000000000000000000000000000000000000000000000000000000000000000000000000000000000000000PES00010000001A00000000000639300000000000000000000000000                              000000000000000
201501050010002700000000000000039378                8000000000033608724279NAFPUR SA                     000000000014503000000000000000000000000000000000000000000000000000000000000000000000000000000000000000000000000000000000PES00010000001A00000000000251700000000000000000000000000                              000000000000000
201501060010000400000000000000001213                8000000000030709721670ARGENTINA CARGO SRL           000000000750109000000000000000000000000000000000000000000000000000000000000000000000000000000000000000000000000000000000PES00010000001A00000000013018400000000000000000000000000                              000000000000000
201501070010000100000000000000022100                8000000000030708739746ACEROS SUD SA                 000000000284103000000000000000000000000000000000000000000000000000000000000000000000000000000000000000000000000000000000PES00010000001A00000000004930700000000000000000000000000                              000000000000000
201501080010000100000000000000072737                8000000000030684766690LITMANOVICH A. Y J. SH        000000000695192000000000000000000000000000000000000000000000000000000000000000000000000000000000000000000000000000000000PES00010000001A00000000012065300000000000000000000000000                              000000000000000
201501080010000100000000000000170147                8000000000033541463769FISCHETTI Y CIA. S.R.L.       000000000034800000000000000000000000000000000000000000000000000000000000000000000000000000000000000000000000000000000000PES00010000001A00000000000604000000000000000000000000000                              000000000000000
201501080010000400000000000000082264                8000000000030539170380HIMAQ S.H.DE ARRIGONI         000000000063750000000000000000000000000000000000000000000000000000000000000000000000000000000000000000000000000000000000PES00010000001A00000000001106400000000000000000000000000                              000000000000000
201501090010000100000000000000006209                8000000000020223885196CENTRO FLET DE VERA P.        000000000025410000000000000000000000000000000000000000000000000000000000000000000000000000000000000000000000000000000000PES00010000001A00000000000441000000000000000000000000000                              000000000000000
201501090010000400000000000000042517                8000000000030588917157PAPELERA R.J.CORA S.A.        000000000015730000000000000000000000000000000000000000000000000000000000000000000000000000000000000000000000000000000000PES00010000001A00000000000273000000000000000000000000000                              000000000000000
201501090010000800000000000000045856                8000000000030517345039QUIMICA OESTE S.A.            000000000015778000000000000000000000000000000000000000000000000000000000000000000000000000000000000000000000000000000000PES00010000001A00000000000273800000000000000000000000000                              000000000000000
201501090010001200000000000000054290                8000000000030707983732NAFPUR XXI S.A.               000000000007252000000000000000000000000000000000000000000000000000000000000000000000000000000000000000000000000000000000PES00010000001A00000000000125900000000000000000000000000                              000000000000000
201501120010000200000000000000085567                8000000000030540918364LA FERRETERA INDUSTRIAL       000000000014288000000000000000000000000000000000000000000000000000000000000000000000000000000000000000000000000000000000PES00010000001A00000000000248000000000000000000000000000                              000000000000000
201501120010000300000000000000064072                8000000000030595442369BULONERA MATADEROS SRL        000000000016743000000000000000000000000000000000000000000000000000000000000000000000000000000000000000000000000000000000PES00010000001A00000000000290600000000000000000000000000                              000000000000000
201501120010100100000000000000189601                8000000000030538068841FAMIQ S.A.                    000000000211970000000000000000000000000000000000000000000000000000000000000000000000000000000000000000000000000000000000PES00010000001A00000000003678800000000000000000000000000                              000000000000000
201501130010000100000000000000000978                8000000000027238530658GARCIA METALES NO FERROSO     000000000381150000000000000000000000000000000000000000000000000000000000000000000000000000000000000000000000000000000000PES00010000001A00000000006615000000000000000000000000000                              000000000000000
201501130010000100000000000000003877                8000000000027345335809RULEMANES SAN PEDRITO         000000000564465000000000000000000000000000000000000000000000000000000000000000000000000000000000000000000000000000000000PES00010000001A00000000009796500000000000000000000000000                              000000000000000
201501130010000100000000000000009848                8000000000030697336451EXTINGUIDORES ELTA SRL        000000000164100000000000000000000000000000000000000000000000000000000000000000000000000000000000000000000000000000000000PES00010000001A00000000002848000000000000000000000000000                              000000000000000
201501130010000500000000000000006447                8000000000020044258898BULYFER DE M.V.MENAHEM        000000000019999000000000000000000000000000000000000000000000000000000000000000000000000000000000000000000000000000000000PES00010000001A00000000000347100000000000000000000000000                              000000000000000
201501140010000100000000000000002402                8000000000020105979453SOLMEC DE RAUL COLAUTTI       000000000171820000000000000000000000000000000000000000000000000000000000000000000000000000000000000000000000000000000000PES00010000001A00000000002982000000000000000000000000000                              000000000000000
201501140010000100000000000000043873                8000000000030712135022DESTINATUM SA                 000000000014469000000000000000000000000000000000000000000000000000000000000000000000000000000000000000000000000000000000PES00010000001A00000000000251100000000000000000000000000                              000000000000000
201501140010000200000000000000000192                8000000000030712030158LEONARDO ADROVER Y LUCAS      000000000028314000000000000000000000000000000000000000000000000000000000000000000000000000000000000000000000000000000000PES00010000001A00000000000491400000000000000000000000000                              000000000000000
201501140010000500000000000000040621                8000000000020112511521ARGENSOLD                     000000000075868000000000000000000000000000000000000000000000000000000000000000000000000000000000000000000000000000000000PES00010000001A00000000001316700000000000000000000000000                              000000000000000
201501140010000600000000000000002099                8000000000030707988378CARMAS COMPOSITES S.R.L.      000000000180700000000000000000000000000000000000000000000000000000000000000000000000000000000000000000000000000000000000PES00010000001A00000000003136100000000000000000000000000                              000000000000000
201501150010000200000000000000085601                8000000000030540918364LA FERRETERA INDUSTRIAL       000000000008480000000000000000000000000000000000000000000000000000000000000000000000000000000000000000000000000000000000PES00010000001A00000000000147200000000000000000000000000                              000000000000000
201501150010000600000000000000010094                8000000000030627718213LAAPSA                        000000000104544000000000000000000000000000000000000000000000000000000000000000000000000000000000000000000000000000000000PES00010000001A00000000001814400000000000000000000000000                              000000000000000
201501160010000100000000000000006275                8000000000020223885196CENTRO FLET DE VERA P.        000000000033880000000000000000000000000000000000000000000000000000000000000000000000000000000000000000000000000000000000PES00010000001A00000000000588000000000000000000000000000                              000000000000000
201501160010000100000000000000046487                8000000000030576303862CANEDA SA                     000000000087120000000000000000000000000000000000000000000000000000000000000000000000000000000000000000000000000000000000PES00010000001A00000000001512000000000000000000000000000                              000000000000000
201501160010000200000000000000085613                8000000000030540918364LA FERRETERA INDUSTRIAL       000000000005057000000000000000000000000000000000000000000000000000000000000000000000000000000000000000000000000000000000PES00010000001A00000000000087800000000000000000000000000                              000000000000000
201501160010001200000000000000054592                8000000000030707983732NAFPUR XXI S.A.               000000000007236000000000000000000000000000000000000000000000000000000000000000000000000000000000000000000000000000000000PES00010000001A00000000000125600000000000000000000000000                              000000000000000
201501160010027800000000000001418761                8000000000030574876474AUTOPISTAS URBANAS            000000000001676000000000000000000000000000000000000000000000000000000000000000000000000000000000000000000000000000000000PES00010000001A00000000000029100000000000000000000000000                              000000000000000
201501160010028700000000000001452398                8000000000030574876474AUTOPISTAS URBANAS            000000000002236000000000000000000000000000000000000000000000000000000000000000000000000000000000000000000000000000000000PES00010000001A00000000000038800000000000000000000000000                              000000000000000
201501160010054900000000000005652315                8000000000030663498513GRUPO CONSEC.DEL OESTE SA     000000000001160000000000000000000000000000000000000000000000000000000000000000000000000000000000000000000000000000000000PES00010000001A00000000000020100000000000000000000000000                              000000000000000
201501190010000300000000000000064145                8000000000030595442369BULONERA MATADEROS SRL        000000000010503000000000000000000000000000000000000000000000000000000000000000000000000000000000000000000000000000000000PES00010000001A00000000000182300000000000000000000000000                              000000000000000
201501190010000700000000000000070820                8000000000000000000000BULONERA ATLAS                000000000262207000000000000000000000000000000000000000000000000000000000000000000000000000000000000000000000000000000000PES00010000001A00000000004550700000000000000000000000000                              000000000000000
201501200010000100000000000000000982                8000000000027238530658GARCIA METALES NO FERROSO     000000000361790000000000000000000000000000000000000000000000000000000000000000000000000000000000000000000000000000000000PES00010000001A00000000006279000000000000000000000000000                              000000000000000
201501210010000200000000000000085669                8000000000030540918364LA FERRETERA INDUSTRIAL       000000000006108000000000000000000000000000000000000000000000000000000000000000000000000000000000000000000000000000000000PES00010000001A00000000000106000000000000000000000000000                              000000000000000
201501210010000900000000000000014150                8000000000030614104712EPSON ARGENTINA S.R.L.        000000000026392000000000000000000000000000000000000000000000000000000000000000000000000000000000000000000000000000000000PES00010000001A00000000000250800000000000000000000000000                              000000000000000
201501220010000100000000000000108463                8000000000033612087089J.L. METALES S.R.L.           000000000056885000000000000000000000000000000000000000000000000000000000000000000000000000000000000000000000000000000000PES00010000001A00000000000987300000000000000000000000000                              000000000000000
201501220010000100000000000000171980                8000000000030534626068MARIO BONORA SAIC             000000000020535000000000000000000000000000000000000000000000000000000000000000000000000000000000000000000000000000000000PES00010000001A00000000000356400000000000000000000000000                              000000000000000
201501220010000300000000000000031883                8000000000030612474334ZAFF S.H.                     000000000063961000000000000000000000000000000000000000000000000000000000000000000000000000000000000000000000000000000000PES00010000001A00000000001110100000000000000000000000000                              000000000000000
201501220010000400000000000000003233                8000000000030595442369BULONERA MATADEROS SRL        000000000017142000000000000000000000000000000000000000000000000000000000000000000000000000000000000000000000000000000000PES00010000001A00000000000297500000000000000000000000000                              000000000000000
201501220030000700000000000000005424                8000000000000000000000BULONERA ATLAS                000000000010805000000000000000000000000000000000000000000000000000000000000000000000000000000000000000000000000000000000PES00010000001A00000000000187500000000000000000000000000                              000000000000000
201501220010000700000000000000071033                8000000000000000000000BULONERA ATLAS                000000000015264000000000000000000000000000000000000000000000000000000000000000000000000000000000000000000000000000000000PES00010000001A00000000000264900000000000000000000000000                              000000000000000
201501220010264900000000000000101325                8000000000030678774495OPERADORES EST.SCIO S.A.      000000000007415000000000000000000000000000000000000000000000000000000000000000000000000000000000000000000000000000000000PES00010000001A00000000000128700000000000000000000000000                              000000000000000
201501230010000400000000000000008700                8000000000020044258898BULYFER DE M.V.MENAHEM        000000000006476000000000000000000000000000000000000000000000000000000000000000000000000000000000000000000000000000000000PES00010000001A00000000000112400000000000000000000000000                              000000000000000
201501230010000500000000000000040922                8000000000020112511521ARGENSOLD                     000000000023000000000000000000000000000000000000000000000000000000000000000000000000000000000000000000000000000000000000PES00010000001A00000000000399200000000000000000000000000                              000000000000000
201501280010000200000000000000000213                8000000000030712030158LEONARDO ADROVER Y LUCAS      000000000012988000000000000000000000000000000000000000000000000000000000000000000000000000000000000000000000000000000000PES00010000001A00000000000225400000000000000000000000000                              000000000000000
201501280010000200000000000000085742                8000000000030540918364LA FERRETERA INDUSTRIAL       000000000013000000000000000000000000000000000000000000000000000000000000000000000000000000000000000000000000000000000000PES00010000001A00000000000225600000000000000000000000000                              000000000000000
201501280010001200000000000000055013                8000000000030707983732NAFPUR XXI S.A.               000000000007235000000000000000000000000000000000000000000000000000000000000000000000000000000000000000000000000000000000PES00010000001A00000000000125600000000000000000000000000                              000000000000000
201501290010000100000000000000044569                8000000000030712135022DESTINATUM SA                 000000000007235000000000000000000000000000000000000000000000000000000000000000000000000000000000000000000000000000000000PES00010000001A00000000000125600000000000000000000000000                              000000000000000
201501290010000100000000000008328220                8000000000030663498513GRUPO CONSEC.DEL OESTE SA     000000000001160000000000000000000000000000000000000000000000000000000000000000000000000000000000000000000000000000000000PES00010000001A00000000000020100000000000000000000000000                              000000000000000
201501290010000100000000000010087451                8000000000030663498513GRUPO CONSEC.DEL OESTE SA     000000000001160000000000000000000000000000000000000000000000000000000000000000000000000000000000000000000000000000000000PES00010000001A00000000000020100000000000000000000000000                              000000000000000
201501290010000400000000000000008783                8000000000020044258898BULYFER DE M.V.MENAHEM        000000000036808000000000000000000000000000000000000000000000000000000000000000000000000000000000000000000000000000000000PES00010000001A00000000000638800000000000000000000000000                              000000000000000
